:1000000005308A00D72D0000FF00030E8301A100F8
:100010000A08A0008A010408A2007708A300780853
:10002000A4007908A5007A08A600831383120B1E8A
:100030001B288B1832288C308400001C21280C18B7
:100040003528220884002308F7002408F800250832
:10005000F9002608FA0020088A00210E8300FF0E0E
:100060007F0E09008A110A1270298A110A12362994
:100070008B13CA08031D4528F930831692000530FA
:100080008312920095010C3097004A08143C031D1E
:100090005328F930831692000530831292003130D4
:1000A00095003C3097004A08283C031D6128F93030
:1000B00083169200053083129200633095003C3025
:1000C00097004A083C3C031D6F28F93083169200C4
:1000D000053083129200953095003C3097004A0815
:1000E000503C031D7D28F9308316920005308312A1
:1000F0009200C73095003C3097004A08643C031DCD
:100100008B28F93083169200053083129200F93063
:1001100095003C3097008B1708008B13CB01CA0861
:10012000031D9828B2080319982888138812B20171
:100130004A08643C031DB3283208643C0319B32801
:100140006430B2000813CB014B08633C031CB22897
:100150008816AA28AB2800008812AE28AF28000015
:10016000CB0AA42888174A08463C031DDE2832081B
:10017000463C0319DE284630B2000813CB014B0879
:10018000633C031CCD288816C528C62800008812A9
:10019000C928CA280000CB0ABF280817CB014B0882
:1001A000293C031CDD288816D528D6280000881293
:1001B000D928DA280000CB0ACF2888174A08323C11
:1001C000031D09293208323C031909293230B200D3
:1001D0000813CB014B08633C031CF8288816F02851
:1001E000F12800008812F428F5280000CB0AEA283C
:1001F0000817CB014B08453C031C08298816002929
:10020000012900008812042905290000CB0AFA28D8
:1002100088174A081E3C031D342932081E3C031966
:1002200034291E30B2000813CB014B08633C031C79
:10023000232988161B291C29000088121F29202920
:100240000000CB0A15290817CB014B08613C031CA1
:10025000332988162B292C29000088122F293029B0
:100260000000CB0A252988178B17080010100C10E6
:10027000A80A2808783C031D3F29A801AC0A2C08CD
:100280000F3C031D4729AC01AD0A803086062C08BF
:10029000093C031D4E291430CA0038202C080B3CA1
:1002A000031D5429CA0138202D08303C031D5D2947
:1002B000AD01AF0ACA018D20B00A2F08043C031912
:1002C000AF013008043C031D6729B00188150B30CD
:1002D0008F00DC308E0010140C108A110A122128B5
:1002E000CA018B138B108811B0010816CA014A0885
:1002F000B33C031C97290430CB00FA30CC004C30BF
:10030000840083130008031993290130F800F701D2
:10031000F70B8829F80B87294A30F700F70B8E294D
:100320009129800B8529CB0B7D29CA0A77290812D0
:100330008614061E992986108B178B108A110A12B3
:1003400021280F30831603178800890183120313B5
:100350009F171F1783169F179F121F1283121F14B8
:100360008A110A12082E90109011901610160B3058
:100370008F00DC308E0010148A110A12092E8E3084
:10038000F7003708F8003608F900FA01F808031DED
:10039000D3297908F800F9010830F702F808031D9D
:1003A000D329F701DB290310F81BDA29F90DF80D21
:1003B000F703D329F8130800360803194C2ABE00A6
:1003C0003A0803194C2ABE070318ED297F30BE02F4
:1003D000031C4C2A03194C2AF1298130BE0703184B
:1003E0004C2A3E08F700F801F901FA013708C2006B
:1003F000C2173808C1003908C0001830BE00BF015C
:10040000401C1A2A3D08FA07031C0C2AF90A031D8E
:100410000C2AF80A0319BF173C08F907031C132A12
:10042000F80A0319BF173B08B800B8173808F807CF
:100430000318BF17BF0DF80CF90CFA0CC20CC10C55
:10044000C00C0310BE0BFF290130F70703184C2A1C
:10045000F81B312AC20DFA0DF90DF80DF703031937
:100460004C2AC21F422AFA0A031D422AF90A031D16
:10047000422AF80A031D422AF80CF90CFA0CF70A72
:1004800003194C2A3708BF003B08BF06BF1F4A2A82
:10049000F817502AF813502AF701F801F901FA0168
:1004A00008003A080319162BC6003E080319162B3C
:1004B000C602031C602A7F30C6070318162B662A63
:1004C0008130C602031C162B0319162B4608F700B1
:1004D000F801F901FA01C5013B08C400C4173C0842
:1004E000C3003D08C2001930C6004108C20203180B
:1004F000892A0130C3020318892AC4020318892AF1
:10050000C5020318892AC50AC40AC30A4108C207DA
:10051000BB2A4008C3020318A42A0130C4020318EE
:10052000A42AC5020318A42AC50AC40A4008C3079E
:100530004108C207031CBB2AC30A031DBB2AC40A05
:10054000031DBB2AC50ABB2A3F088038C402031812
:10055000BA2A0130C5020318BA2AC50A3F088038F2
:10056000C4074008C307031C982AC40A031D982A1D
:10057000C50A982A7A14C60BBE2AC92A0310C20DCE
:10058000C30DC40DC50D0310FA0DF90DF80DC70DFF
:10059000752A471CD12A0310F80CF90CFA0CC70C69
:1005A000D42AF7030319162BC71BFD2A0310C20D0B
:1005B000C30DC40DC50D4108C2020318E92A01305C
:1005C000C3020318E92AC4020318E92AC502031C5E
:1005D0000C2B4008C3020318F42A0130C40203188C
:1005E000F42AC502031C0C2B3F088038C4020318F0
:1005F000FD2A0130C502031C0C2BFA0A031D0C2B2B
:10060000F90A031D0C2BF80A031D0C2BF70A03191A
:10061000162BF80CF90CFA0C3B08C6003F08C6066E
:10062000C61F142BF8171A2BF8131A2BF701F80111
:10063000F901FA0108008E30F7003608F702370892
:10064000F9003808F800F917F7080319322B0310DE
:10065000F908031D2E2BF8080319322BF90CF80C9E
:10066000F70B272BB71F392BF809F909F80A0319DB
:10067000F90A08000B13B301B501B4019F121F1250
:100680009F111F11B3013308013C031C272D9F1438
:100690009F18482BFA01B60183161E0883123607ED
:1006A000B4001E08B5000318B50A04309F07B3084C
:1006B000031D912B3508B7003408B600BF217A0816
:1006C000B9007908B8007808B7007708B600BD010E
:1006D000BC014830BB008430BA00DC217708B6008A
:1006E0007808B7007908B8007A08B900BD00790821
:1006F000BC007808BB007708BA00C101C030C00058
:100700007F30BF008830BE0051227A08B9007908D6
:10071000B8007808B7007708B6001B237808AA004D
:10072000252D330B252D3508B7003408B600BF2121
:10073000CC30B9004C30B8002130B7008630B6005C
:100740007A08BD007908BC007808BB007708BA00B9
:10075000DC217708B6007808B7007908B8007A0875
:10076000B9003908BD003808BC003708BB0036089E
:10077000BA00C101C030C0007F30BF008830BE0069
:1007800051227708B6007808B7007908B8007A08CF
:10079000B90083143908BD003808BC003708BB0015
:1007A0003608BA00B030C1007230C0004E30BF0011
:1007B0008330BE0080308318BF06C401C5013B08EA
:1007C000C3003F08C3063A080319CA2CC200F70049
:1007D0003E080319D32CC20203196F2C031C2D2CC5
:1007E0003F08C800C8174008C7004108C600C50137
:1007F0000310C80CC70CC60CC50CC20BF72BC31FCB
:10080000042C4414E72C4410421044163D3084005C
:100810008313FC2C4412C31B172C421C222CC80C23
:10082000C70CC60CC50CF70A0319E22C222CC81BF6
:10083000252C0310C50DC60DC70DC80DF7030319F0
:10084000E22C172C44178F2C44133B08C300C31F02
:100850002B2CC817DB2CC813DB2C3E08C200F7007A
:100860003A08C2023B08C800C8173C08C7003D0848
:10087000C600C5010310C80CC70CC60CC50CC20BC2
:10088000392CC31F462CC414E72CC4104210C416C4
:10089000413084008313FC2CC412C31B592C421C0E
:1008A000642CC80CC70CC60CC50CF70A0319E22C43
:1008B000642CC81B672C0310C50DC60DC70DC80DD1
:1008C000F7030319E22C592CC4178F2CC4133F08CB
:1008D000C300C31F6D2CC817DB2CC813DB2C3F08CB
:1008E000C800C8174008C7004108C600C31F7C2CB9
:1008F000C8134415E72C4411C50142103D30840053
:100900008313FC2CC31BA52C3B08C300421C8F2C5B
:10091000C80CC70CC60CC50CF70A0319E22CC51F7E
:10092000A02CC60A031DA02CC70A031DA02CC80AB0
:10093000031DA02CC80CC70CC60CF70A0319E22C27
:10094000441B242CC41B662CC42C8030C806C81F32
:10095000AD2CE72C3F08C300BA2C3B08C300C808E5
:10096000031DBA2CC708031DBA2CC608031DBA2CD8
:10097000F701DB2CC81BC42C0310C50DC60DC70D19
:10098000C80DF70BBA2CE22CC31FC82CC817DB2CE0
:10099000C813DB2C3E08F7003F08C8004008C7001A
:1009A0004108C600DB2C3A08F7003B08C8003C08A9
:1009B000C7003D08C6004808F8004708F900460887
:1009C000FA001A2DF701F801F901FA011A2DC501F3
:1009D000C609C709C809C509C50A031DF52CC60AF9
:1009E000031DF52CC70A0319C80A4418032CC418A0
:1009F000452C44197B2CAA2C0008C607031C062D85
:100A0000C70A031D062DC80A0319421484030008EF
:100A1000C707031C0E2DC80A0319421484030008DB
:100A2000801F803AC80703184214441A0A2CC41ABB
:100A30004C2C822C7A08B9007908B8007808B700E5
:100A40007708B6001B237808AB00B30A432B0B17BB
:100A500008002A08123C031C362DA7018B1BA71780
:100A60008B136430CA008D20A71B8B172A08123CF9
:100A70000318472D2A08163C031C472DA7018B1B82
:100A8000A7178B134630CA008D20A71B8B172A0887
:100A9000163C0318582D2A081C3C031C582DA7018E
:100AA0008B1BA7178B133230CA008D20A71B8B1707
:100AB0002A081C3C0318692D2A081E3C031C692DBA
:100AC000A7018B1BA7178B131E30CA008D20A71BF5
:100AD0008B172A081E3C0318752DA7018B1BA7171F
:100AE0008B13CA018D20A71B8B172A08233C0318E0
:100AF0008E2D2A08283C031C8E2DA7018B1BA717BF
:100B00008B131430CA003820A71B8B17A7018B1B2F
:100B1000A7178B13CA018D20A71B8B172A08283C07
:100B20000318A72D2A082C3C031CA72DA7018B1BFB
:100B3000A7178B132830CA003820A71B8B17A701D3
:100B40008B1BA7178B13CA018D20A71B8B172A0895
:100B50002C3C0318BC2DA7018B1BA7178B135030FF
:100B6000CA003820A71B8B17A7018B1BA7178B1355
:100B7000CA018D20A71B8B172A08223C031CD42DE9
:100B80002B08453C031CD42D2C080B3C031CCC2DFE
:100B90002C08083C031CD42DA7018B1BA7178B1313
:100BA000CA013820A71B8B178A110A123E2E840116
:100BB00083131F308305A801A901AA01AB01AC0171
:100BC000AD01AE01AF01B001B1011630B200831624
:100BD00003170908C039890003131F129F12003040
:100BE0000317880083128701880189010730831663
:100BF000031385001930860087018801890183125B
:100C00008501860187018801890197019D01A1293C
:100C1000B3298316011783120B168B1783160C1436
:100C200083120B17FF3083169500960083128813EA
:100C3000881488153A23051D312E0811A7018B1B36
:100C4000A7178B13CA018D20A71B8B17A7018B1B1E
:100C5000A7178B13CA013820A71B8B1788100519FB
:100C60002F2E08308806AF0803193A2E2F08023CB1
:100C7000031D4A2E081586100812292D2E082D0254
:100C800003194A2E0230880688180810881C081498
:100C90002D08AE002F0B4D2E512E2F08033C031DA7
:100CA000642E0811861008122E082D020319642ED6
:100CB000881001308806B10A3108073C031D622EF6
:100CC000B10188142D08AE0029082802043C031D38
:0C0CD0006C2E2808A9003A231B2E63009C
:04400E00E42FFF3F5D
:00000001FF
;PIC16F887
;CRC=B389  CREATED="22-set-16 15:26"
